:0400000046EF00F0D7
:100008005482E1CF4AF0E2CF4BF0D9CF4CF0DACFAF
:100018004DF0F3CF4EF0F4CF4FF0F6CF50F0F7CFCE
:1000280051F0F8CF52F0F5CF53F0F2AC1EEF00F0DC
:1000380020EF00F030EF00F0A3A425EF00F027EF49
:1000480000F030EF00F0A4A42CEF00F02EEF00F049
:1000580030EF00F011EC14F053C0F5FF52C0F8FF78
:1000680051C0F7FF50C0F6FF4FC0F4FF4EC0F3FF7A
:100078004DC0DAFF4CC0D9FF4BC0E2FF4AC0E1FFD8
:0800880054921100D2EF28F0A0
:100800000000000C570000BA520000000000000079
:1008100000000000000A405F0002400100C80868B4
:10082000089C08250809024300020100C03209049F
:10083000000001020201000524001001042402024C
:1008400005240600010524010001070581030A00B3
:100850000209040100020A0000000705020240002C
:10086000000705820240000034034D006900630068
:1008700072006F006300680069007000200054007F
:100880006500630068006E006F006C006F00670019
:100890007900200049006E0063002E001A0350000A
:1008A00072006F00640075006300740020004E0049
:1008B00061006D0065001201000202000008D8040A
:1008C0000A000001010200010403090454656D706F
:1008D000657261747572653A2025660D0A0064615F
:1008E000746100494E46004E414E00696E66006ECE
:0708F000616E006C66000060
:1008F800000E0001AE6F000EAD6F8FC0BFF090C04C
:10090800C0F091C0C1F092C0C2F0C2BF90EF04F035
:100918008EEF04F0A6EF04F0000EAE6F010EAD6F7F
:10092800BFC060F0C0C061F0C1C062F0C2C063F077
:1009380008EC2BF060C0BFF061C0C0F062C0C1F02D
:1009480063C0C2F0000E0001C66F000EC56F28C15B
:10095800B1F029C1B2F0AD51AE11D8A4B6EF04F090
:10096800B8EF04F0BFEF04F0F7A5BDEF04F0BFEF58
:1009780004F0D9EF04F0AD51AE11D8A4C6EF04F0DD
:10098800C8EF04F0CEEF04F0000E9A6F2B0E996FAB
:10099800D2EF04F0000E9A6F2D0E996F99C031F1C5
:1009A800C54BC62BB107D8A0B207BFC060F0C0C006
:1009B80061F0C1C062F0C2C063F02EEC22F0000109
:1009C80060056111D8A4EBEF04F0EDEF04F037EF08
:1009D80005F0BF0E946FFF0E956F9351966F976B4E
:1009E8009451962795519723975107E11A0E965DD2
:1009F800D8B001EF05F003EF05F011EF05F0310E67
:100A0800C525606F010EC621616FE30E626F080E87
:100A1800636F01EC29F01DEF05F0310EC525606FFD
:100A2800010EC621616FEB0E626F080E636F01EC59
:100A380029F00001FD0EB127FF0EB2238DC070F022
:100A48008EC071F0310E0001726F010E736FB1C06C
:100A580074F0B2C075F06BEC24F070C08DF071C00A
:100A68008EF086EF0AF0BFC060F0C0C061F0C1C070
:100A780062F0C2C063F02EEC22F0000160516111F7
:100A8800D8A449EF05F04BEF05F07DEF05F0BF0E58
:100A9800946FFF0E956F9351966F976B94519627AD
:100AA80095519723975107E11A0E965DD8B05FEFDD
:100AB80005F061EF05F06FEF05F0310EC525606FA9
:100AC800010EC621616FE70E626F080E636F01ECBD
:100AD80029F01DEF05F0310EC525606F010EC62106
:100AE800616FEF0E626F080E636F01EC29F01DEF66
:100AF80005F0000EC76F000EC86F800EC96F3F0E5D
:100B0800CA6F000EC46F000EC36FBFC060F0C0C0D4
:100B180061F0C1C062F0C2C063F0000E646F000EE5
:100B2800656F000E666F000E676F3FEC26F00001E0
:100B3800D8B0A1EF05F0A3EF05F028EF06F0C2EF5B
:100B480005F0C7C060F0C8C061F0C9C062F0CAC093
:100B580063F0000E646F000E656F200E666F410E25
:100B6800676FE8EC0CF060C0C7F061C0C8F062C005
:100B7800C9F063C0CAF00001C34BC42BBFC079F0F1
:100B8800C0C07AF0C1C07BF0C2C07CF0000E646FB8
:100B9800000E656F200E666F410E676FC7C060F06C
:100BA800C8C061F0C9C062F0CAC063F0E8EC0CF0DC
:100BB80060C07DF061C07EF062C07FF063C080F0ED
:100BC80027EC20F00001D8B0ECEF05F0EEEF05F0CF
:100BD800A5EF05F00EEF06F0C7C060F0C8C061F0E1
:100BE800C9C062F0CAC063F0000E646F000E656F82
:100BF800200E666F410E676FFEEC0EF060C0C7F006
:100C080061C0C8F062C0C9F063C0CAF00001C30780
:100C1800D8A0C407BFC079F0C0C07AF0C1C07BF0CB
:100C2800C2C07CF0C7C07DF0C8C07EF0C9C07FF0EC
:100C3800CAC080F027EC20F00001D8A026EF06F00B
:100C480028EF06F0F0EF05F093C066F0676B00EC54
:100C58002AF000016651B46FB4C0B3F0670EB4193E
:100C6800D8A439EF06F03BEF06F061EF06F0F55136
:100C7800F611D8A442EF06F044EF06F048EF06F06C
:100C8800000EF66F010EF56FF6BF55EF06F0F65140
:100C980006E1F505D8B053EF06F055EF06F05BEF27
:100CA80006F0000EB06F060EAF6F6AEF06F0F5C0E3
:100CB800AFF0F6C0B0F06AEF06F0F6BF66EF06F0E8
:100CC80068EF06F055EF06F05BEF06F0670EB41913
:100CD800D8A471EF06F073EF06F0A2EF06F0C4AFE8
:100CE80081EF06F0FC0EC35DFF0EC459D8A07FEF5C
:100CF80006F081EF06F0A0EF06F0FF0E946FFF0EEE
:100D0800956FAFC096F0B0C097F094519627955163
:100D18009723C351965D9751800A986FC451800AF2
:100D28009859D8A09AEF06F09CEF06F0A0EF06F0CD
:100D3800660EB36FA2EF06F0650EB36FAFC0A5F0F5
:100D4800B0C0A6F0670EB419D8A4ADEF06F0AFEFA7
:100D580006F0BFEF06F0660EB319D8A4B6EF06F09A
:100D6800B8EF06F0C1EF06F0C4BFBFEF06F0BDEF65
:100D780006F0C1EF06F0A54BA62B660EB319D8A452
:100D8800C8EF06F0CAEF06F0EAEF06F0C4BFD1EFED
:100D980006F0CFEF06F0DDEF06F0000EC76F000E8D
:100DA800C86F800EC96F3F0ECA6F000EC46F000E69
:100DB800C36F670EB419D8B4E4EF06F0E6EF06F097
:100DC800EAEF06F0C351A527C451A623000EBE6F53
:100DD800000EBD6FBFC0B5F0C0C0B6F0C1C0B7F05F
:100DE800C2C0B8F0C7C0A7F0C8C0A8F0C9C0A9F071
:100DF800CAC0AAF07CEF07F0B5C060F0B6C061F0D9
:100E0800B7C062F0B8C063F0C7C064F0C8C065F08E
:100E1800C9C066F0CAC067F0FEEC0EF060C079F099
:100E280061C07AF062C07BF063C07CF025EC15F0FD
:100E380079C0B9F07AC0BAF07BC0BBF07CC0BCF016
:100E4800B9C060F0BAC061F0BBC062F0BCC063F06A
:100E5800A3EC1FF060C0ABF061C0ACF0B5C079F096
:100E6800B6C07AF0B7C07BF0B8C07CF0C7C064F0F9
:100E7800C8C065F0C9C066F0CAC067F0B9C060F004
:100E8800BAC061F0BBC062F0BCC063F0E8EC0CF023
:100E980060C07DF061C07EF062C07FF063C080F00A
:100EA80048EC2AF079C0B5F07AC0B6F07BC0B7F04C
:100EB8007CC0B8F0C7C060F0C8C061F0C9C062F0BB
:100EC800CAC063F0000E0001646F000E656F200E4B
:100ED800666F410E676FFEEC0EF060C0C7F061C030
:100EE800C8F062C0C9F063C0CAF00001BD4BBE2B98
:100EF800A551BD5DBE51800A946FA651800A9459D0
:100F0800D8A089EF07F08BEF07F000EF07F0C7C014
:100F180060F0C8C061F0C9C062F0CAC063F0000EDA
:100F2800646F000E656FA00E666F400E676FE8EC89
:100F38000CF060C0B9F061C0BAF062C0BBF063C029
:100F4800BCF0B5C079F0B6C07AF0B7C07BF0B8C0D5
:100F58007CF0B9C07DF0BAC07EF0BBC07FF0BCC0E9
:100F680080F027EC20F00001D8B0BDEF07F0BFEF0C
:100F780007F0C9EF07F0000EB96F000EBA6F000E48
:100F8800BB6F000EBC6FF2EF07F0B5C060F0B6C0E3
:100F980061F0B7C062F0B8C063F0B9C064F0BAC01D
:100FA80065F0BBC066F0BCC067F03FEC26F00001FE
:100FB800D8A0E1EF07F0E3EF07F0F2EF07F0ABB1ED
:100FC800E8EF07F0EAEF07F0F2EF07F0000EB96F6D
:100FD800000EBA6F000EBB6F000EBC6FBFC060F092
:100FE800C0C061F0C1C062F0C2C063F0B9C064F0B3
:100FF800BAC065F0BBC066F0BCC067F087EC0AF009
:1010080060C0B5F061C0B6F062C0B7F063C0B8F0B8
:10101800B5C079F0B6C07AF0B7C07BF0B8C07CF044
:10102800000E0001646F000E656F200E666F410EA2
:10103800676FA7C060F0A8C061F0A9C062F0AAC03D
:1010480063F0E8EC0CF060C07DF061C07EF062C037
:101058007FF063C080F027EC20F00001D8A037EFC4
:1010680008F039EF08F061EF08F0C34BC42BA7C0B4
:1010780060F0A8C061F0A9C062F0AAC063F0000ED9
:10108800646F000E656F200E666F410E676FE8ECA7
:101098000CF060C0A7F061C0A8F062C0A9F063C0FE
:1010A800AAF0660E0001B319D8A45DEF08F05FEF4F
:1010B80008F061EF08F0A54BA62BA7C0C7F0A8C0A1
:1010C800C8F0A9C0C9F0AAC0CAF0650EB319D8B44F
:1010D80070EF08F072EF08F078EF08F0C3C0A3F0E3
:1010E800C4C0A4F07CEF08F0000EA46F000EA36F3C
:1010F800000EA26F000EA16F000EA06F000E9F6F72
:10110800000EBE6F000EBD6F78EF09F0B5C060F03D
:10111800B6C061F0B7C062F0B8C063F0C7C064F091
:10112800C8C065F0C9C066F0CAC067F0FEEC0EF032
:1011380060C079F061C07AF062C07BF063C07CF077
:1011480025EC15F079C0B9F07AC0BAF07BC0BBF0D5
:101158007CC0BCF0B9C060F0BAC061F0BBC062F03E
:10116800BCC063F0A3EC1FF060C0ABF061C0ACF092
:101178000001F7B9C2EF08F0C4EF08F0E1EF08F09A
:10118800AB51AC11D8A4CBEF08F0CDEF08F0E1EFEC
:1011980008F0670EB419D8A4D4EF08F0D6EF08F019
:1011A800E1EF08F0A4BFDDEF08F0DBEF08F0E1EFB6
:1011B80008F09F4BA02B2BEF09F0A151A211D8A446
:1011C800E8EF08F0EAEF08F014EF09F0A4BFF1EF38
:1011D80008F0EFEF08F014EF09F0310EC525D96ECD
:1011E800010EC621DA6E2E0EDF6EC54BC62BB10777
:1011F800D8A0B207000EA26F010EA16F14EF09F07C
:10120800310EC525D96E010EC621DA6E300EDF6E9D
:10121800C54BC62BB107D8A0B2079F07D8A0A00717
:101228009F51A011D8A41BEF09F01DEF09F004EF9E
:1012380009F0310EC525D96E010EC621DA6EAB5103
:10124800300FDF6EC54BC62BB107D8A0B207B5C0AB
:1012580079F0B6C07AF0B7C07BF0B8C07CF0C7C0F0
:1012680064F0C8C065F0C9C066F0CAC067F0B9C00C
:1012780060F0BAC061F0BBC062F0BCC063F0E8ECDB
:101288000CF060C07DF061C07EF062C07FF063C08A
:1012980080F048EC2AF079C0B5F07AC0B6F07BC08F
:1012A800B7F07CC0B8F0C7C060F0C8C061F0C9C072
:1012B80062F0CAC063F0000E0001646F000E656F33
:1012C800200E666F410E676FFEEC0EF060C0C7F02F
:1012D80061C0C8F062C0C9F063C0CAF00001A307CA
:1012E800D8A0A407BD4BBE2BA551BD5DBE51800A39
:1012F800946FA651800A9459D8B085EF09F087EF0A
:1013080009F095EF09F0C6BF93EF09F0C65109E15E
:101318004B0EC55DD8A093EF09F095EF09F08AEF61
:1013280008F0A151A211D8A49CEF09F09EEF09F092
:10133800AFEF09F0F7A9A3EF09F0A5EF09F0AFEFB8
:1013480009F0310EC525D96E010EC621DA6E2E0EB2
:10135800DF6EC54BC62B310EC525D96E010EC621D1
:10136800DA6E000EDF6E650EB319D8A4BEEF09F071
:10137800C0EF09F022EF05F0000EBE6F4F0EBD6FF3
:10138800310EBD25D96E010EBE21DA6E000EDF6E5C
:10139800000EAE6F000EAD6FC4BFD7EF09F0D5EFEA
:1013A80009F0DFEF09F0000EAE6F010EAD6FC36DEF
:1013B800C41FD8B0C42B000EB06F020EAF6F11EF70
:1013C8000AF0BD07D8A0BE07310EBD25D96E010EA3
:1013D800BE21DA6EC3C060F0C4C061F0000E636F56
:1013E8000A0E626F8FEC25F000016051300FDF6E3E
:1013F800C3C060F0C4C061F0000E636F0A0E626F74
:10140800D0EC24F060C0C3F061C0C4F00001AF07A5
:10141800D8A0B007B107D8A0B207C351C411D8A447
:1014280018EF0AF01AEF0AF0E5EF09F0B0BF27EF5E
:101438000AF0B05106E1AF05D8B025EF0AF027EF62
:101448000AF0E5EF09F0BD07D8A0BE07AD51AE110F
:10145800D8A431EF0AF033EF0AF039EF0AF0000EA2
:101468009C6F2B0E9B6F3DEF0AF0000E9C6F2D0EAC
:101478009B6F310EBD25D96E010EBE21DA6E9BC061
:10148800DFFFB107D8A0B207BD07D8A0BE07BF0EBF
:10149800946FFF0E956F9351966F976B94519627A3
:1014A80095519723975109E11A0E965DD8A05FEFE1
:1014B8000AF061EF0AF067EF0AF0000E9E6F650E02
:1014C8009D6F6BEF0AF0000E9E6F450E9D6F310EFB
:1014D800BD25D96E010EBE21DA6E9DC0DFFFB107B2
:1014E800D8A0B207310EC525606F010EC621616F05
:1014F800310EBD25626F010EBE21636F01EC29F02C
:1015080022EF05F0120000016351800B6C6F6351EC
:1015180063256E6F62AF93EF0AF095EF0AF096EFCE
:101528000AF06E816E51D8B49CEF0AF09EEF0AF073
:10153800B3EF0AF06E29D8A4A4EF0AF0A6EF0AF0D8
:10154800AEEF0AF0000E606F000E616F000E626F62
:10155800000E636F628F000E636FBBEF0AF0000E20
:10156800606F000E616F000E626F000E636F67514F
:10157800800B6D6F6C516D19D8B4C5EF0AF0C7EFC9
:101588000AF0C8EF0AF06C8D675167256D6F66AF7A
:10159800D0EF0AF0D2EF0AF0D3EF0AF06D816D5167
:1015A800D8B4D9EF0AF0DBEF0AF0F0EF0AF06D29B2
:1015B800D8A4E1EF0AF0E3EF0AF0EBEF0AF0000E2F
:1015C800646F000E656F000E666F000E676F668FA2
:1015D800000E676FF8EF0AF0000E646F000E656F7B
:1015E800000E666F000E676F6E516D5DD8B0FFEF2D
:1015F8000AF001EF0BF028EF0BF06CAD06EF0BF0E3
:1016080008EF0BF00AEF0BF0800E6C1B6EC06FF04A
:101618006DC06EF06FC06DF060C06FF064C060F0B8
:101628006FC064F061C06FF065C061F06FC065F0B5
:1016380062C06FF066C062F06FC066F063C06FF0A2
:1016480067C063F06FC067F0000E6F6F6E516DC0BA
:1016580068F0696B685F000E695B69BF3DEF0BF06E
:10166800695109E11A0E685DD8A03DEF0BF03FEF14
:101678000BF076EF0BF06051611162116311D8A481
:1016880048EF0BF04BEF0BF0010E4CEF0BF0000E98
:101698006F6F000E606F000E616F000E626F000EBC
:1016A800636F6DC06EF07FEF0BF06FA15EEF0BF014
:1016B80060EF0BF066EF0BF0D8906F3101096F6F98
:1016C80068EF0BF0D8906F3360A16DEF0BF06FEF00
:1016D8000BF070EF0BF06F8F633563336233613358
:1016E80060336E2B6D516E5DD8A07DEF0BF07FEFF0
:1016F8000BF059EF0BF06CBD84EF0BF086EF0BF09D
:10170800C6EF0BF06E51D8A48CEF0BF08EEF0BF0F8
:1017180098EF0BF0000E606F000E616F000E626FA5
:10172800000E636FE7EF0CF0645160276551612389
:10173800665162236751632363A1A5EF0BF0A7EFFE
:101748000BF053EF0CF06FA1ACEF0BF0AEEF0BF01A
:10175800B4EF0BF0D8906F3101096F6FB6EF0BF053
:10176800D8906F3360A1BBEF0BF0BDEF0BF0BEEF6D
:101778000BF06F8F633563336233613360336E2BE5
:1017880053EF0CF06451605D6551615966516259BF
:101798006351800A686F6751800A6859D8B0D7EFDB
:1017A8000BF0D9EF0BF004EF0CF06051645D686F3B
:1017B80061516559696F625166596A6F635167591A
:1017C8006B6FFF0E6825606FFF0E6921616FFF0E5A
:1017D8006A21626FFF0E6B21636F800E6C1B6F6D49
:1017E8006F51D8A4FAEF0BF0FCEF0BF00CEF0CF0F4
:1017F800010E6027000E6123622363230CEF0CF0B7
:101808006451605F6551615B6651625B6751635B00
:101818006051611162116311D8A415EF0CF017EF34
:101828000CF04CEF0CF06F51D8A41DEF0CF01FEF2B
:101838000CF04CEF0CF0000E606F000E616F000EA4
:10184800626F000E636FE7EF0CF0D8906037613776
:10185800623763376FAF33EF0CF035EF0CF036EFCC
:101868000CF060816FA13BEF0CF03DEF0CF041EF05
:101878000CF0D8806F3743EF0CF0D8906F376E516B
:10188800D8B449EF0CF04BEF0CF04CEF0CF06E07AE
:1018980062AF51EF0CF053EF0CF029EF0CF0000E93
:1018A8006D6F6FAF5AEF0CF05CEF0CF074EF0CF04B
:1018B8006FC068F07F0E6817D8B465EF0CF067EF5B
:1018C8000CF06BEF0CF0010E6D6F74EF0CF060A173
:1018D80070EF0CF072EF0CF074EF0CF067EF0CF097
:1018E8006D51D8B47AEF0CF07CEF0CF0A7EF0CF048
:1018F800010E6027000E61236223632363A187EF33
:101908000CF089EF0CF0A7EF0CF060C068F061C034
:1019180069F062C06AF063C06BF06B356B336A3391
:101928006933683368C060F069C061F06AC062F00A
:101938006BC063F06E29D8B4A4EF0CF0A6EF0CF0DE
:10194800A7EF0CF06E2B6E29D8B4ADEF0CF0AFEF0B
:101958000CF0B7EF0CF06E51D8A4B5EF0CF0B7EF60
:101968000CF0C9EF0CF0000E606F000E616F000EF6
:10197800626F000E636F6E51D8A4C5EF0CF0C7EF0D
:101988000CF0C9EF0CF0000E6C6F6EA1CEEF0CF0EE
:10199800D0EF0CF0D3EF0CF0628FD4EF0CF0629F15
:1019A800D8906E31636F6CAFDCEF0CF0DEEF0CF0AB
:1019B800DFEF0CF0638F60C060F061C061F062C05F
:1019C80062F063C063F0120000016351800B6C6F1A
:1019D80063516325726F62AFF4EF0CF0F6EF0CF011
:1019E800F7EF0CF072817251D8B4FDEF0CF0FFEFF5
:1019F8000CF012EF0DF07229D8A405EF0DF007EFE7
:101A08000DF00FEF0DF0000E606F000E616F000E0D
:101A1800626F000E636F628F1AEF0DF0000E606F39
:101A2800000E616F000E626F000E636F6751800BCE
:101A38006C1B675167256D6F66AF25EF0DF027EFBB
:101A48000DF028EF0DF06D816D51D8B42EEF0DF02B
:101A580030EF0DF043EF0DF06D29D8A436EF0DF0FF
:101A680038EF0DF040EF0DF0000E646F000E656F5B
:101A7800000E666F000E676F668F4BEF0DF0000E5D
:101A8800646F000E656F000E666F000E676F6D5114
:101A9800D8B451EF0DF053EF0DF05BEF0DF072512C
:101AA800D8A459EF0DF05BEF0DF065EF0DF0000EC7
:101AB800606F000E616F000E626F000E636FFDEFC6
:101AC8000EF066516003F3CF77F0F4CF78F07751DA
:101AD8006E6F6F6B706B716B7851736F746B756B26
:101AE800766B65516103F3CF77F0F4CF78F07751D7
:101AF8006E27000E6F237023712378517327000E11
:101B080074237523762364516203F3CF77F0F4CFFF
:101B180078F077516E27000E6F2370237123785168
:101B28007327000E74237523762370C071F06FC07D
:101B380070F06EC06FF06E6B64516103F3CF77F095
:101B4800F4CF78F077516E2778516F23000E702309
:101B5800000E712365516003F3CF77F0F4CF78F06E
:101B680077516E2778516F23000E7023000E712372
:101B780070C071F06FC070F06EC06FF06E6B645122
:101B88006003F3CF77F0F4CF78F077516E27785170
:101B98006F23000E7023000E712366516103F3CF8B
:101BA80077F0F4CF78F07751732778517423000ECB
:101BB8007523000E762365516203F3CF77F0F4CFD7
:101BC80078F07751732778517423000E7523000E2F
:101BD800762366516203F3CF77F0F4CF78F077512C
:101BE800686F7851696F6A6B6B6B6AC06BF069C01C
:101BF8006AF068C069F0686B68517327695174238B
:101C08006A5175236B5176236EC068F06FC069F016
:101C180070C06AF071C06BF0190E18EF0EF0D89012
:101C28006B336A3369336833E82E13EF0EF068516B
:101C38007327695174236A5175236B51762370C0D9
:101C480071F06FC070F06EC06FF06E6B6D5172C046
:101C580068F0696B6827000E6923820E6825776F24
:101C6800FF0E6921786F4EEF0EF0D89073377437F6
:101C78007537763771AF43EF0EF045EF0EF046EF4C
:101C88000EF07381D8906E376F37703771377707DA
:101C9800D8A0780775AF53EF0EF055EF0EF039EF77
:101CA8000EF0000E6D6F71AF5CEF0EF05EEF0EF090
:101CB80082EF0EF0FF0E6E15686FFF0E6F15696FDD
:101CC800FF0E70156A6F7F0E71156B6F6851691181
:101CD8006A116B11D8B473EF0EF075EF0EF079EF4F
:101CE8000EF0010E6D6F82EF0EF073A17EEF0EF015
:101CF80080EF0EF082EF0EF075EF0EF06D51D8B454
:101D080088EF0EF08AEF0EF0AEEF0EF0010E73279B
:101D1800000E74237523762376A195EF0EF097EFC6
:101D28000EF0AEEF0EF073C068F074C069F075C0C5
:101D38006AF076C06BF06B356B336A33693368339E
:101D480068C073F069C074F06AC075F06BC076F053
:101D5800774B782B78BFB9EF0EF0785108E17729E7
:101D6800D8A0B9EF0EF0BBEF0EF0C5EF0EF0000EE5
:101D7800736F000E746F800E756F7F0E766FF3EFC2
:101D88000EF078BFD2EF0EF0785106E17705D8B0A3
:101D9800D0EF0EF0D2EF0EF0DEEF0EF0000E736F04
:101DA800000E746F000E756F000E766F000E6C6F6C
:101DB800F3EF0EF077C072F0FF0E7317FF0E741773
:101DC8007F0E7517000E761772A1EDEF0EF0EFEF8C
:101DD8000EF0F0EF0EF0758FD8907231766F6C516F
:101DE800761373C060F074C061F075C062F076C09D
:101DF80063F0120000016351800B706F635163251B
:101E0800776F62AF0AEF0FF00CEF0FF00DEF0FF0E6
:101E180077817751D8B413EF0FF015EF0FF02AEF51
:101E28000FF07729D8A41BEF0FF01DEF0FF025EF67
:101E38000FF0000E606F000E616F000E626F000EF3
:101E4800636F628F000E636F32EF0FF0000E606FEA
:101E5800000E616F000E626F000E636F6751800B9A
:101E6800701B67516725786F66AF3DEF0FF03FEF46
:101E78000FF040EF0FF078817851D8B446EF0FF0AB
:101E880048EF0FF05DEF0FF07829D8A44EEF0FF070
:101E980050EF0FF058EF0FF0000E646F000E656FF3
:101EA800000E666F000E676F668F000E676F65EF36
:101EB8000FF0000E646F000E656F000E666F000E67
:101EC800676F6451651166116711D8A46EEF0FF042
:101ED80070EF0FF088EF0FF0000E606F000E616F6B
:101EE800000E626F000E636F800E62137F0E631325
:101EF8007051631360C060F061C061F062C062F04D
:101F080063C063F0CBEF10F07751D8A48EEF0FF0D9
:101F180090EF0FF09AEF0FF0000E606F000E616FF8
:101F2800000E626F000E636FCBEF10F0785177C030
:101F380068F0696B685F000E695B7F0E6825716FDA
:101F4800000E6921726F60C06CF061C06DF062C0F4
:101F58006EF063C06FF0000E606F000E616F000ED0
:101F6800626F000E636F000E736F000E746F000EC9
:101F7800756F000E766F000E786FFBEF0FF07851DB
:101F8800D8B4C9EF0FF0CBEF0FF0E2EF0FF0D89015
:101F98006C376D376E376F37D89060376137623777
:101FA800633776AFDAEF0FF0DCEF0FF0DDEF0FF00D
:101FB8006081D890733774377537763764516C5DA4
:101FC80065516D5966516E5967516F59D8A0EFEF39
:101FD8000FF0F1EF0FF0FAEF0FF0768D64516C5FB0
:101FE80065516D5B66516E5B67516F5B782B190E9F
:101FF800786501EF10F003EF10F0C3EF0FF06C51AC
:102008006D116E116F11D8B40CEF10F00EEF10F0C7
:1020180026EF10F0738126EF10F0D8906037613703
:102028006237633776AF1BEF10F01DEF10F01EEF2D
:1020380010F06081D8907337743775377637710729
:10204800D8A0720762AF2BEF10F02DEF10F011EF50
:1020580010F0000E786F76AF34EF10F036EF10F016
:102068005AEF10F0FF0E7315686FFF0E7415696F45
:10207800FF0E75156A6F7F0E76156B6F68516911C3
:102088006A116B11D8B44BEF10F04DEF10F051EF0F
:1020980010F0010E786F5AEF10F060A156EF10F0B3
:1020A80058EF10F05AEF10F04DEF10F07851D8B407
:1020B80060EF10F062EF10F086EF10F0010E60276D
:1020C800000E61236223632363A16DEF10F06FEFAD
:1020D80010F086EF10F060C068F061C069F062C06F
:1020E8006AF063C06BF06B356B336A3369336833FE
:1020F80068C060F069C061F06AC062F06BC063F0EC
:10210800714B722B72BF91EF10F0725108E1712977
:10211800D8A091EF10F093EF10F09EEF10F0000EA2
:10212800726F7169000E606F000E616F000E626F52
:10213800000E636F72BFABEF10F0725106E17105CC
:10214800D8B0A9EF10F0ABEF10F0B9EF10F0000E17
:10215800726F000E716F000E606F000E616F000EDF
:10216800626F000E636F000E706F71C077F077A119
:10217800C0EF10F0C2EF10F0C5EF10F0628FC6EF9D
:1021880010F0629FD8907731636F7CEF0FF01200E8
:1021980004013205D8A4D3EF10F0D5EF10F0EFEF1B
:1021A80010F030511F0B0009D8A4DDEF10F0DFEF5D
:1021B80010F0EFEF10F0128E030E3119D8A4E7EFEC
:1021C80010F0E9EF10F0EDEF10F0010E236EEFEFD5
:1021D80010F0000E236E3251D8A4F5EF10F0F7EF8F
:1021E80010F075EF12F030511F0B020AD8A4FFEF60
:1021F80010F001EF11F075EF12F034510F0B0009D8
:10220800D8B409EF11F00BEF11F075EF12F034515B
:102218000F0B3F6E030E3F6014EF11F016EF11F035
:1022280075EF12F0200E2618D8A41DEF11F01FEF3D
:1022380011F075EF12F0128E34BF25EF11F027EF71
:1022480011F044EF11F034510F0B3F6E3F50020D67
:102258000A0EF324D96E010EF420DA6EDECF44F0B4
:10226800DDCF45F034510F0B3F6E406AEF0E3F242F
:10227800D96E000E4020DA6EDF50436E5FEF11F02A
:1022880034510F0B3F6E3F50020D090EF324D96EE7
:10229800000EF420DA6EDECF44F0DDCF45F0345185
:1022A8000F0B3F6E406AF20E3F24D96E000E40209D
:1022B800DA6EDF50436E43B064EF11F066EF11F051
:1022C8006EEF11F0FB0E4414446EFF0E4514456E7C
:1022D80073EF11F0040E4410446E4550456E34BF40
:1022E80078EF11F07AEF11F08BEF11F034510F0BFA
:1022F8003F6E3F50020D0A0EF324D96E010EF420F2
:10230800DA6E44C0DEFF45C0DDFF9AEF11F03451AC
:102318000F0B3F6E3F50020D090EF324D96E000ECD
:10232800F420DA6E44C0DEFF45C0DDFF030E31192C
:10233800D8A4A1EF11F0A3EF11F0DDEF11F044C024
:10234800D9FF45C0DAFFDFAEACEF11F0AEEF11F008
:10235800CFEF11F034BFB3EF11F0B5EF11F0C3EFC9
:1023680011F034510F0B3F6E406AEF0E3F24D96EC7
:10237800000E4020DA6E0001DF82CFEF11F03451F9
:102388000F0B3F6E406AF20E3F24D96E000E4020BC
:10239800DA6E0001DF8244C0D9FF45C0DAFF000EC3
:1023A800DB8444C0D9FF45C0DAFF000EDB8E75EF31
:1023B80012F0040E4418446E4550456E44C0D9FFCF
:1023C80045C0DAFFDFAEEBEF11F0EDEF11F009EFEA
:1023D80012F044C0D9FF45C0DAFF7F0EDF1644C0B3
:1023E800D9FF45C0DAFF000EDB8C000E386E050EF3
:1023F800376E44C039F045C03AF0000E3C6E020E0C
:102408003B6E83EC27F00FEF12F044C0D9FF45C0B4
:10241800DAFF000EDB8C040E4418446E4550456EFE
:1024280043B219EF12F01BEF12F026EF12F044C07E
:10243800D9FF45C0DAFFDFAE24EF12F026EF12F025
:102448005EEF12F0040134BF2CEF12F02EEF12F001
:102458003CEF12F034510F0B3F6E406AEF0E3F24F1
:10246800D96E000E4020DA6E0001DF9248EF12F0BC
:1024780034510F0B3F6E406AF20E3F24D96E000EA6
:102488004020DA6E0001DF9244C0D9FF45C0DAFF70
:102498003B0EDF16000E386E050E376E44C039F05D
:1024A80045C03AF0000E3C6E020E3B6E83EC27F0FE
:1024B80064EF12F044C0D9FF45C0DAFF3B0EDF16C7
:1024C800040134510F0B3F6E406A6A0E3F24416E7F
:1024D8000F0E4020426E41C0D9FF42C0DAFFFE0E07
:1024E800DF161200CDC0D9FFCEC0DAFFDECFF6FF6F
:1024F800DDCFF7FF0800F550250AD8A486EF12F0C3
:1025080088EF12F0F4EF13F0CDC0D9FFCEC0DAFF98
:10251800DE2A000EDD22000E0101296F000E286F51
:1025280028C1F7F029C1F8F00001F569F669CDC0B6
:10253800D9FFCEC0DAFFDECFF6FFDDCFF7FF080008
:10254800F550666F676B00EC2AF000016651D96F91
:10255800D951D8B4B2EF12F0B4EF12F0EEEF12F096
:10256800CDC0D9FFCEC0DAFFDECFD1F0DDCFD2F0BB
:10257800010ED127000ED223D1C0F6FFD2C0F7FF3B
:102588000800F550666F676B00EC2AF00001665191
:10259800DA6FDA51D8B4D3EF12F0D5EF12F0EEEFCC
:1025A80012F0CDC0D9FFCEC0DAFFDECFD1F0DDCF3B
:1025B800D2F0020ED127000ED223D1C0F6FFD2C02E
:1025C800F7FF0800F550666F676B00EC2AF0000112
:1025D8006651DB6F660ED919D8A4F5EF12F0F7EF44
:1025E80012F037EF13F0CDC0D9FFCEC0DAFFDECF3F
:1025F800F6FFDDCFF7FF0800F5CFDCF0CDC0D9FF3F
:10260800CEC0DAFFDE2A000EDD22CFC0D9FFD0C04F
:10261800DAFFDFCFD1F0040EDE26DFCFD2F0000ED6
:10262800DD22D1C0D9FFD2C0DAFFDECFD5F0DECFB0
:10263800D6F0DECFD7F0DECFD8F0CBC08DF0CCC04F
:102648008EF0D5C08FF0D6C090F0D7C091F0D8C02A
:1026580092F0DCC093F07CEC04F08DC0CBF08EC01F
:10266800CCF010EF14F0D90E606F000E616FF30E0E
:10267800626F080E636F000E656F020E646F99EC4F
:1026880023F0000160516111D8A44DEF13F04FEF12
:1026980013F0BDEF13F0CDC0D9FFCEC0DAFFDECF07
:1026A800D1F0DDCFD2F0010ED127000ED223D1C058
:1026B800F6FFD2C0F7FF0800F5CFDCF0BF0ED16FF0
:1026C800FF0ED26FCDC0D9FFCEC0DAFFDECFF6FF46
:1026D800DDCFF7FF0800F550D36FD46BD151D32766
:1026E800D251D423D45107E11A0ED35DD8B07FEF6D
:1026F80013F081EF13F09BEF13F0CFC0D9FFD0C0D8
:10270800DAFFDFCFD1F0040EDE26DFCFD2F0000EE5
:10271800DD22D1C0D9FFD2C0DAFFDECFD5F0DECFBF
:10272800D6F0DECFD7F0DECFD8F0B3EF13F0CFC0BE
:10273800D9FFD0C0DAFFDFCFD1F0040EDE26DFCF1D
:10274800D2F0000EDD22D1C0D9FFD2C0DAFFDECF31
:10275800D5F0DECFD6F0DECFD7F0DECFD8F0020E40
:10276800CDC0D9FFCEC0DAFFDE26000EDD2221EF74
:1027780013F0CDC0D9FFCEC0DAFFDECFF6FFDDCF34
:10278800F7FF0800F550250AD8A4CDEF13F0CFEFD6
:1027980013F0E7EF13F0CDC0D9FFCEC0DAFFDE2A81
:1027A800000EDD22000E616F250E606FCBC062F057
:1027B800CCC063F005EC24F0000E0001CC6F010ED4
:1027C800CB6F10EF14F0CDC0D9FFCEC0DAFFDE2AF0
:1027D800000EDD22000ECC6F000ECB6F10EF14F050
:1027E800CDC0D9FFCEC0DAFFDECFF6FFDDCFF7FFD1
:1027F8000800F5500001606F616BCBC062F0CCC07F
:1028080063F005EC24F0CDC0D9FFCEC0DAFFDE2A94
:10281800000EDD22E0EF13F012002604D8A417EF13
:1028280014F019EF14F026EF14F060BA1EEF14F04C
:1028380020EF14F026EF14F0000E656E64806488B3
:10284800020E266E65A42BEF14F02DEF14F037EF6F
:1028580014F064A432EF14F034EF14F037EF14F0EE
:102868006594ADEC2AF060A23CEF14F03EEF14F052
:1028780041EF14F0A49424EF15F065A046EF14F08E
:1028880048EF14F055EF14F064A04DEF14F04FEF3B
:1028980014F055EF14F065EC1BF0A384040E266EBB
:1028A800659065A85AEF14F05CEF14F065EF14F02A
:1028B80064A861EF14F063EF14F065EF14F040ECD6
:1028C8002BF065AC6AEF14F06CEF14F097EF14F08E
:1028D80064AC71EF14F073EF14F081EF14F0000E94
:1028E800386E730E376E000E396E000E3A6E000E9B
:1028F8003C6E010E3B6E83EC27F0659C25EC2BF0BB
:102908001F50D8B48AEF14F08CEF14F08DEF14F048
:102918001F061F50D8A493EF14F095EF14F097EF0B
:1029280014F0AEEC22F065AA9CEF14F09EEF14F0C0
:10293800A7EF14F064AAA3EF14F0A5EF14F0A7EF23
:1029480014F0A2EC28F065A2ACEF14F0AEEF14F08E
:10295800C4EF14F064A2B3EF14F0B5EF14F0C4EFB1
:1029680014F07F0E386E3768000E396E000E3A6E1E
:10297800000E3C6E010E3B6E83EC27F0000E676E76
:10298800040E2660CAEF14F0CCEF14F0CFEF14F069
:10299800A49424EF15F064A6D4EF14F0D6EF14F045
:1029A80023EF15F0000E496E65A6DDEF14F0DFEF9A
:1029B80014F023EF15F061CF29F02930E832E8321E
:1029C8000F0B216E659629B4ECEF14F0EEEF14F0BE
:1029D800F8EF14F0EF0E2124D96EDA6A000EDA222D
:1029E8000001DF7000EF15F0F20E2124D96EDA6ACB
:1029F800000EDA220001DF702150D8A406EF15F08E
:102A080008EF15F00CEF15F033EC25F01AEF15F080
:102A1800000E386E720E376E290E396E000E3A6E41
:102A2800000E3C6E000E3B6E83EC27F0492A030E25
:102A3800496421EF15F023EF15F0D8EF14F0A494B2
:102A4800120010C189F011C18AF012C18BF013C1B4
:102A58008CF079C089F07AC08AF07BC08BF07CC09A
:102A68008CF0810E00017D6FFF0E7E6F89C07FF0B4
:102A78008AC080F08BC081F08CC082F0180E4AEFBB
:102A880015F0D8908233813380337F33E82E45EFB9
:102A980015F07F517D25876F000E7E21886F88BFD6
:102AA8005FEF15F0885109E1170E875DD8A05FEF39
:102AB80015F061EF15F06BEF15F079C079F07AC079
:102AC8007AF07BC07BF07CC07CF02FEF16F088BFDB
:102AD80070EF15F072EF15F0E3EF15F087C07DF099
:102AE800FF0E7E6FFF0E7F6F7F0E806F000E816F6F
:102AF8007D6781EF15F089EF15F0813581338033DB
:102B08007F337E337D2F7CEF15F07EC083F07FC04E
:102B180084F080C085F081C086F00001835189155A
:102B28007D6F84518A157E6F85518B157F6F865115
:102B38008C15806F7D517E117F118011D8A4A7EF6D
:102B480015F0A9EF15F0ABEF15F061EF15F089C09E
:102B58007DF08AC07EF08BC07FF08CC080F0200EA4
:102B6800BBEF15F0D89080337F337E337D33E82E6A
:102B7800B6EF15F07D517E117F118011D8B4C7EFE3
:102B880015F0C9EF15F0D1EF15F08351892784515D
:102B98008A2385518B2386518C23831D7D6F841D49
:102BA8007E6F851D7F6F861D806F7D5189177E51D1
:102BB8008A177F518B1780518C1727EF16F089C021
:102BC8007DF08AC07EF08BC07FF08CC080F0200E34
:102BD800F3EF15F0D89080337F337E337D33E82EC2
:102BE800EEEF15F07D517E117F118011D8A4FFEF13
:102BF80015F001EF16F00BEF16F0000E896F000EBE
:102C08008A6F000E8B6F000E8C6F27EF16F0D8902E
:102C180089357D6F8A357E6F8B357F6F8C35806FF8
:102C28007D517E117F118011D8B41DEF16F01FEF72
:102C380016F027EF16F0000E896F000E8A6F800ECF
:102C48008B6FBF0E8C6F89C079F08AC07AF08BC009
:102C58007BF08CC07CF012000001686F00016851A5
:102C6800D8B439EF16F03BEF16F05DEF16F063BFFE
:102C780042EF16F040EF16F05DEF16F060C064F01A
:102C880061C065F062C066F063C067F0641F651FCD
:102C9800661F671F642B000E65236623672364C0C5
:102CA8006AF065C06BF066C06CF067C06DF065EFE8
:102CB80016F060C06AF061C06BF062C06CF063C06F
:102CC8006DF06051611162116311D8A46EEF16F0B6
:102CD80070EF16F07AEF16F0000E606F000E616F5D
:102CE800000E626F000E636F0BEF17F0960E696FA0
:102CF80084EF16F0692BD8906D336C336B336A33DD
:102D0800000E6A15646F000E6B15656F000E6C156A
:102D1800666FFE0E6D15676F645165116611671158
:102D2800D8A499EF16F09BEF16F07EEF16F0A9EFF6
:102D380016F0692B010E6A27000E6B236C236D2396
:102D4800D8906D336C336B336A33000E6A15646F39
:102D5800000E6B15656F000E6C15666FFF0E6D1516
:102D6800676F6451651166116711D8A4BEEF16F03C
:102D7800C0EF16F09DEF16F0C8EF16F06907D8906F
:102D88006A376B376C376D376CBFCDEF16F0CFEF06
:102D980016F0D7EF16F0020E6961D5EF16F0D7EFEF
:102DA80016F0C2EF16F069B1DCEF16F0DEEF16F0A0
:102DB800DFEF16F06C9FD890693369C064F0656BDB
:102DC800666B676B64C067F0666B656B646B6451B8
:102DD8006A1365516B1366516C1367516D13685113
:102DE800D8B4F9EF16F0FBEF16F003EF17F063BF56
:102DF80002EF17F000EF17F003EF17F06D8F6AC0BE
:102E080060F06BC061F06CC062F06DC063F01200DE
:102E1800A39401012C512D11D8B415EF17F017EF19
:102E280017F025EF17F02CC1D9FF2DC1DAFFDFAE5F
:102E380020EF17F022EF17F025EF17F0A384E5EF46
:102E480017F0030E3019D8A42CEF17F02EEF17F057
:102E580030EF17F0000E306F3051D8A436EF17F06E
:102E680038EF17F03BEF17F0A384E5EF17F0020EE9
:102E78003019D8A442EF17F044EF17F059EF17F0C4
:102E8800010E0001606F000E616F000E626F000E90
:102E9800636F020E0BEC1CF060C02CF161C02DF1C9
:102EA800030E0101306FE4EF17F03005D8A45FEF8F
:102EB80017F061EF17F0E4EF17F0400E276467EFA3
:102EC80017F069EF17F06EEF17F0400E00016C6F06
:102ED80070EF17F027C06CF000016C51275C276E6B
:102EE800000E0101206F050E216F6CC06BF02F5191
:102EF800D8A481EF17F083EF17F0B2EF17F096EF31
:102F080017F023C1D9FF24C1DAFF20C1E1FF21C195
:102F1800E2FFDFCFE7FF0101204B212B234B242BBE
:102F280000016B0700016B51D8A49DEF17F09FEFCC
:102F380017F085EF17F0BBEF17F023C1D9FF24C1B5
:102F4800DAFF20C1E1FF21C1E2FFDFCFE7FF010186
:102F5800204B212B234B242B00016B0700016B51C5
:102F6800D8A4B9EF17F0BBEF17F0A1EF17F027506F
:102F7800D8A4C1EF17F0C3EF17F0D4EF17F0400E45
:102F88006C19D8A4CAEF17F0CCEF17F0D1EF17F0EF
:102F9800020E0101306FD4EF17F0030E0101306FFC
:102FA800010E0001606F000E616F050E626F6CC04C
:102FB80063F0020E0BEC1CF060C02CF161C02DF127
:102FC800A384120060C06AF061C06BF00001645114
:102FD8006511D8A4F2EF17F0F4EF17F0F6EF17F039
:102FE800A1EF18F06AC0D9FF6BC0DAFF62C0DFFF3B
:102FF80064516A25666F65516B21676FFF0E662500
:10300800D96EFF0E6721DA6E62C0DFFF655107E1F6
:10301800030E645DD8B013EF18F015EF18F017EF32
:1030280018F0A1EF18F020EE01F06A51D9266B5183
:10303800DA2262C0DFFF20EE02F06A51D9266B5116
:10304800DA2262C0DFFF64516A25666F65516B2121
:10305800676FFE0E6625D96EFF0E6721DA6E62C0B5
:10306800DFFF64516A25666F65516B21676FFD0E3E
:103078006625D96EFF0E6721DA6E62C0DFFF6551E3
:1030880007E1070E645DD8B04CEF18F04EEF18F06A
:1030980050EF18F0A1EF18F020EE03F06A51D9268E
:1030A8006B51DA2262C0DFFF64516A25666F655191
:1030B8006B21676FFC0E6625D96EFF0E6721DA6EED
:1030C80062C0DFFF655107E1090E645DD8B06FEF9C
:1030D80018F071EF18F073EF18F0A1EF18F06AC04C
:1030E80066F06BC067F0661F671F664B672B030EA1
:1030F8006615686F696B68516A2769516B23685157
:10310800645F6951655BFC0E6417FF0E651798EFE5
:1031180018F06AC0D9FF6BC0DAFF62C0DFFF64072E
:10312800D8A065076A4B6B2B64516511D8A49FEF33
:1031380018F0A1EF18F08DEF18F012002BC035F041
:103148002CC036F02F503010D8A4ADEF18F0AFEFE8
:1031580018F0B1EF18F05CEF19F035C0D9FF36C0A0
:10316800DAFF2DC0DFFF2F503524316E3050362066
:10317800326EFF0E3124D96EFF0E3220DA6E2DC06A
:10318800DFFF305007E1030E2F5CD8B0CEEF18F008
:10319800D0EF18F0D2EF18F05CEF19F020EE01F044
:1031A8003550D9263650DA222DC0DFFF20EE02F046
:1031B8003550D9263650DA222DC0DFFF2F5035245E
:1031C800316E30503620326EFE0E3124D96EFF0E2D
:1031D8003220DA6E2DC0DFFF2F503524316E30508B
:1031E8003620326EFD0E3124D96EFF0E3220DA6E93
:1031F8002DC0DFFF305007E1070E2F5CD8B007EF76
:1032080019F009EF19F00BEF19F05CEF19F020EE47
:1032180003F03550D9263650DA222DC0DFFF2F5063
:103228003524316E30503620326EFC0E3124D96E82
:10323800FF0E3220DA6E2DC0DFFF305007E1090E95
:103248002F5CD8B02AEF19F02CEF19F02EEF19F0F7
:103258005CEF19F035C031F036C032F0311E321E45
:10326800314A322A030E3114336E346A335035260C
:103278003450362233502F5E3450305AFC0E2F16FD
:10328800FF0E301653EF19F035C0D9FF36C0DAFFFC
:103298002DC0DFFF2F06D8A03006354A362A2F501A
:1032A8003010D8A45AEF19F05CEF19F048EF19F074
:1032B800120067EC2BF0F28EF28C929A0F015B9B56
:1032C800898A000E956E000E5E6F000ECDEC2AF016
:1032D8000009D8A472EF19F074EF19F077EF19F01C
:1032E8008C8475EF19F0070E0001EE6F170EED6F65
:1032F8006A0EE82EFED7ED2FFCD7EE2FFAD700F096
:1033080001013051D8A48BEF19F08DEF19F007EFB8
:103318001AF08CAE92EF19F097EF19F00001ED6BEF
:10332800ED2B99EF19F00001ED6BED33ED338C5077
:10333800ED197F0BED198C6E899AE20E606F010E04
:10334800616F000E636F020E626F5DEC29F0898A6F
:103358000101E351E2C1EDF00001EE6BEDC0EEF0CA
:10336800ED6BED27000EEE23EE35EE33ED33EE3543
:10337800EE33ED33EDC060F0EEC061F0000E61BFDA
:10338800FF0E626F636F010E30EC16F060C058F2EA
:1033980061C059F262C05AF263C05BF258C260F071
:1033A80059C261F05AC262F05BC263F0000E0001BC
:1033B800646F000E656F800E666F400E676FFEECDF
:1033C8000EF060C054F261C055F262C056F263C09C
:1033D80057F2400E0001E56F020EE66FCC0EE76F64
:1033E800080EE86F54C2E9F055C2EAF056C2EBF095
:1033F80057C2ECF030EC29F0400E0001606F020E6D
:10340800616FC7EC27F00CEC17F077EF19F046EF77
:1034180000F0800E04013019D8A415EF1AF017EF48
:103428001AF0BCEF1AF0C00E126EA3EF1AF0B60E27
:103438000F6E080E106E000E146E120E136EBCEF97
:103448001AF03251D8A42BEF1AF02DEF1AF06BEFC7
:103458001AF03251020D230EF324F66E080EF420F2
:10346800F76E0900F5CF0FF00A00F5CF10F0020E45
:103478000F242B6E000E10202C6E2BC0F6FF2CC0D4
:10348800F7FFF86A070EF76403D00800F55005D077
:10349800F6CFE1FFF7CFE2FFE750136E030E0F24DC
:1034A8002B6E000E10202C6E2BC0F6FF2CC0F7FFE1
:1034B800F86A070EF76403D00800F55005D0F6CF78
:1034C800E1FFF7CFE2FFE750146EBCEF1AF0000EF1
:1034D800126EBCEF1AF0030E326175EF1AF077EF37
:1034E8001AF09BEF1AF03251020D1D0EF324F66EFE
:1034F800080EF420F76E0900F5CF0FF00A00F5CF9B
:1035080010F00FC0F6FF10C0F7FFF86A070EF76457
:1035180003D00800F55005D0F6CFE1FFF7CFE2FF62
:10352800E7502B6E2B50136E146ABCEF1AF0000E86
:10353800126EBCEF1AF0000E126EBCEF1AF0335187
:103548002B6E2C6A2C50000AD8B4ADEF1AF09FEFFE
:103558001AF02B50010AD8B41BEF1AF0030AD8B49A
:1035680025EF1AF0010AD8B46FEF1AF09FEF1AF09E
:103578001200A394000E676E000E656E000E6A6E50
:103588006B0E0001606F0F0E616F000E636F000E0F
:10359800626F000E656F020E646FE6EC17F0160E90
:1035A800626E9F0E666E7B0E646E000E00016C6F7D
:1035B8006C51040D000EF324D96E040EF420DA6E5B
:1035C800DE6ADE6ADE6ADD6A6C2B0B0E6C65EFEF75
:1035D8001AF0F1EF1AF0DCEF1AF0608C000E636E4F
:1035E8006098609C6596000E126E000E046E000EC8
:1035F800066E000E056E65B604EF1BF006EF1BF0B5
:10360800F6EF1AF0010E1D6E010E1C6E000E1B6EF9
:10361800000E0001FA6F000E226E000E6C6F6C51E6
:10362800020D090EF324D96E000EF420DA6E000E96
:10363800DE6E000EDD6E6C51020D0A0EF324D96E9B
:10364800010EF420DA6E000EDE6E000EDD6EF20E54
:103658006C25D96EDA6A000EDA22000EDF6EEF0EE4
:103668006C25D96EDA6A000EDA22000EDF6E6C2B3A
:10367800020E6C6542EF1BF044EF1BF013EF1BF0DA
:10368800080E096E040E0A6E160E6A6E040E040108
:10369800036F300E026F080E016F040E006F008F6B
:1036A800000E2A6E000E0101186F000E196F000E31
:1036B8001A6F000E1B6F000E0001F96F000E266EC8
:1036C8001200A394000E676E000E656E000E6A6EFF
:1036D8006B0E2B6E0F0E2C6E000E2E6E000E2D6EC6
:1036E800000E306E020E2F6EA2EC18F0160E626EEF
:1036F8009F0E666E7B0E646E000E376E3750040D9B
:10370800000EF324D96E040EF420DA6EDE6ADE6A47
:10371800DE6ADD6A372A0B0E376495EF1BF097EFE8
:103728001BF082EF1BF0608C000E636E6098609C4B
:103738006596000E126E000E046E000E066E000EE8
:10374800056E65B6AAEF1BF0ACEF1BF09CEF1BF003
:10375800010E1D6E010E1C6E000E1B6E000E000188
:10376800FA6F000E226E000E376E3750020D090EEA
:10377800F324D96E000EF420DA6E000EDE6E000E11
:10378800DD6E3750020D0A0EF324D96E010EF420B7
:10379800DA6E000EDE6E000EDD6EF20E3724D96E84
:1037A800DA6A000EDA22000EDF6EEF0E3724D96EC9
:1037B800DA6A000EDA22000EDF6E372A020E37644C
:1037C800E8EF1BF0EAEF1BF0B9EF1BF0080E096EEB
:1037D800040E0A6E160E6A6E040E0401036F300E94
:1037E800026F080E016F040E006F008F000E2A6E24
:1037F800000E0101186F000E196F000E1A6F000EEF
:103808001B6F000E0001F96F000E266E12000001FA
:10381800686F00016051D8B414EF1CF016EF1CF06B
:1038280024EF1CF06851020D090EF324D96E000E26
:10383800F420DA6EDECF69F0DDCF6AF030EF1CF0ED
:103848006851020D0A0EF324D96E010EF420DA6EC7
:10385800DECF69F0DDCF6AF069516A11D8A437EF7D
:103868001CF039EF1CF03FEF1CF0000E606F000EEB
:10387800616FABEF1CF020EE02F06951D9266A5156
:10388800DA2261C0DEFF62C0DDFF20EE01F069517F
:10389800D9266A51DA2263C0DFFF69C0D9FF6AC03E
:1038A800DAFF400EDF1669C0D9FF6AC0DAFF000EE2
:1038B800DB8669C0D9FF6AC0DAFF000EDB8E605173
:1038C800D8B469EF1CF06BEF1CF08AEF1CF068515C
:1038D800020D090EF324D96E000EF420DA6EDECF45
:1038E80064F0DDCF65F0040E6419666F6551676F8B
:1038F8006851020D090EF324D96E000EF420DA6E19
:1039080066C0DEFF67C0DDFFA7EF1CF06851020D3F
:103918000A0EF324D96E010EF420DA6EDECF64F0BD
:10392800DDCF65F0040E6419666F6551676F6851E5
:10393800020D0A0EF324D96E010EF420DA6E66C069
:10394800DEFF67C0DDFF69C060F06AC061F0120089
:10395800609812BEB2EF1CF0B4EF1CF0FAEF1CF046
:1039680004AEB9EF1CF0BBEF1CF0CEEF1CF0020E5A
:10397800246E0001FA51D8A4C4EF1CF0C6EF1CF065
:10398800C8EF1CF0E8EC25F0000E1C6E000E1D6E52
:103998004CEF1DF020EE01F01550D9261650DA2212
:1039A800080EDF6E20EE02F01550D9261650DA22E6
:1039B800300EDE6E040EDD6E15C0D9FF16C0DAFFBC
:1039C8000C0EDF6E15C0D9FF16C0DAFF000EDB8EB5
:1039D80009C0D9FF0AC0DAFF040EDF6E09C0D9FF9B
:1039E8000AC0DAFF000EDB8E4CEF1DF0040130AF89
:1039F80000EF1DF002EF1DF01EEF1DF0010E246E0A
:103A08001B50D8A40AEF1DF00CEF1DF00EEF1DF0AF
:103A1800E8EC25F0000E1C6E000E1D6E1E50D8A49A
:103A280018EF1DF01AEF1DF04CEF1DF0AEEC22F070
:103A38004CEF1DF0020E246E20EE01F01550D92631
:103A48001650DA22080EDF6E20EE02F01550D92645
:103A58001650DA22300EDE6E040EDD6E15C0D9FF68
:103A680016C0DAFF040EDF6E15C0D9FF16C0DAFFE4
:103A7800000EDB8E000E1C6E000E1D6E1E50D8A4AC
:103A880048EF1DF04AEF1DF04CEF1DF01AEF1DF046
:103A9800120020EE01F01750D9261850DA22DF5014
:103AA8002C6E2C50055C000E0658D8B05EEF1DF049
:103AB80060EF1DF062EF1DF005C02CF02C50055E84
:103AC800000E065A000E2B6E79EF1DF0380E2B24CF
:103AD800D96EDA6A040EDA2201C0E1FF02C0E2FF01
:103AE800DFCFE7FF014A022A2B2A2C502B5CD8A0F3
:103AF80080EF1DF082EF1DF06AEF1DF005500610F3
:103B0800D8B489EF1DF08BEF1DF0C4EF1DF020EE47
:103B180001F01550D9261650DA22080EDF6E20EE75
:103B280002F01550D9261650DA22380EDE6E040E31
:103B3800DD6E17C0D9FF18C0DAFFDFBCA6EF1DF095
:103B4800A8EF1DF0B6EF1DF015C0D9FF16C0DAFFBB
:103B5800480EDF6E15C0D9FF16C0DAFF000EDB8EE7
:103B6800EDEF1DF015C0D9FF16C0DAFF080EDF6EA5
:103B780015C0D9FF16C0DAFF000EDB8EEDEF1DF081
:103B880020EE01F01550D9261650DA22080EDF6E05
:103B980020EE02F01550D9261650DA22300EDE6ECD
:103BA800040EDD6E15C0D9FF16C0DAFF040EDF6EF5
:103BB80015C0D9FF16C0DAFF000EDB8E049E1E501A
:103BC800D8A4E9EF1DF0EBEF1DF0EDEF1DF0AEEC22
:103BD80022F01200336E2B50D8B4F5EF1DF0F7EF3A
:103BE8001DF005EF1EF03350020D090EF324D96EB7
:103BF800000EF420DA6EDECF34F0DDCF35F011EFB1
:103C08001EF03350020D0A0EF324D96E010EF42073
:103C1800DA6EDECF34F0DDCF35F034503510D8A46D
:103C280018EF1EF01AEF1EF020EF1EF0000E2B6E9C
:103C3800000E2C6E8CEF1EF020EE02F03450D926C8
:103C48003550DA222CC0DEFF2DC0DDFF20EE01F05A
:103C58003450D9263550DA222EC0DFFF34C0D9FFC0
:103C680035C0DAFF400EDF1634C0D9FF35C0DAFFA1
:103C7800000EDB8634C0D9FF35C0DAFF000EDB8EBC
:103C88002B50D8B44AEF1EF04CEF1EF06BEF1EF02D
:103C98003350020D090EF324D96E000EF420DA6EAB
:103CA800DECF2FF0DDCF30F0040E2F18316E3050FC
:103CB800326E3350020D090EF324D96E000EF42033
:103CC800DA6E31C0DEFF32C0DDFF88EF1EF0335000
:103CD800020D0A0EF324D96E010EF420DA6EDECF3F
:103CE8002FF0DDCF30F0040E2F18316E3050326EC9
:103CF8003350020D0A0EF324D96E010EF420DA6E49
:103D080031C0DEFF32C0DDFF34C02BF035C02CF0EF
:103D1800120004013039E832030B0009D8B497EFD8
:103D28001EF099EF1EF0E1EF1EF01AEF1FF0128E51
:103D3800080E266E1AEF1FF00DEC1AF01AEF1FF09E
:103D480026EC23F01AEF1FF02A0E0F6E000E106EED
:103D58001280010E136E128E1AEF1FF02CEC21F058
:103D68001AEF1FF0CCEC10F01AEF1FF0D00E34252C
:103D78000F6E106A010E10221280010E136E128E41
:103D88001AEF1FF0128ED00E3425D96EDA6A010EA2
:103D9800DA2232C4DFFF1AEF1FF0000E386E020E6F
:103DA800376E000E396E000E3A6E000E3C6E000E35
:103DB8003B6E83EC27F01AEF1FF03151466E476ACD
:103DC8004750000AD8B4EBEF1EF01AEF1FF0465028
:103DD800000AD8B4B2EF1EF0010AD8B4B6EF1EF04C
:103DE800020AD8B4B6EF1EF0060AD8B49BEF1EF04C
:103DF800030AD8B4A0EF1EF0010AD8B4D1EF1EF020
:103E08000F0AD8B4A8EF1EF0010AD8B4A4EF1EF028
:103E1800030AD8B4BAEF1EF0010AD8B4C6EF1EF0F0
:103E2800070AD8B41AEF1FF01AEF1FF01200080E95
:103E38002B6E145007E1080E135CD8B026EF1FF064
:103E480028EF1FF040EF1FF013C02BF02550D8A427
:103E580030EF1FF032EF1FF036EF1FF0010E256E26
:103E680040EF1FF02504D8A43CEF1FF03EEF1FF0F1
:103E780040EF1FF0020E256E2B50135E000E145AF1
:103E880020EE01F00950D9260A50DA222BC0DFFFB4
:103E9800380E01012A6F040E2B6F12B056EF1FF077
:103EA80058EF1FF09AEF1FF075EF1FF00FC0F6FFE5
:103EB80010C0F7FFF86A2AC1D9FF2BC1DAFF070E35
:103EC800F76403D00800F55005D0F6CFE1FFF7CF2F
:103ED800E2FFE750DF6E0F4A102A01012A4B2B2B15
:103EE8002B062B50D8A47BEF1FF07DEF1FF05AEF65
:103EF8001FF0A2EF1FF00FC0F6FF10C0F7FFF86A1F
:103F08002AC1D9FF2BC1DAFF070EF76403D00800D6
:103F1800F55005D0F6CFE1FFF7CFE2FFE750DF6EAF
:103F28000F4A102A01012A4B2B2B2B062B50D8A401
:103F3800A0EF1FF0A2EF1FF07FEF1FF012000001AB
:103F480062356335696F6951D8A4ADEF1FF0AFEFE3
:103F58001FF0B9EF1FF0000E606F000E616F000ECA
:103F6800626F000E636F26EF20F060C064F061C0DE
:103F780065F062C066F063C067F0200EC9EF1FF0FD
:103F8800D8906733663365336433E82EC4EF1FF087
:103F98006451686F628FFF0E6017FF0E6117FF0E86
:103FA8006217000E6317960E695F69BFE0EF1FF096
:103FB800DEEF1FF0F6EF1FF06951800A970FD8B0B7
:103FC800E8EF1FF0EAEF1FF0ECEF1FF0AFEF1FF084
:103FD800D8906333623361336033693FECEF1FF08D
:103FE8000EEF20F01F0E6965FCEF1FF0FEEF1FF0CB
:103FF80006EF20F0AFEF1FF0D890603761376237D7
:10400800633769076951D8A40CEF20F00EEF20F050
:1040180000EF20F06851D8B414EF20F016EF20F02C
:104028001EEF20F0631F621F611F606D000E612389
:104038006223632360C060F061C061F062C062F017
:1040480063C063F01200000E00017915816F000E45
:104058007A15826F800E7B15836F7F0E7C15846FB7
:104068008151821183118411D8A43DEF20F03FEFD4
:1040780020F047EF20F0000E796F000E7A6F000EE7
:104088007B6F000E7C6F000E7D15816F000E7E1514
:10409800826F800E7F15836F7F0E8015846F81512C
:1040A800821183118411D8A45CEF20F05EEF20F018
:1040B80066EF20F0000E7D6F000E7E6F000E7F6FA2
:1040C800000E806F7CAF6BEF20F06DEF20F076EF85
:1040D80020F0796D7A1FD8B07A2B7B1FD8B07B2B54
:1040E800800E7C5780AF7BEF20F07DEF20F086EFCD
:1040F80020F07D6D7E1FD8B07E2B7F1FD8B07F2B20
:10410800800E8057000E791B000E7A1B000E7B1B59
:10411800800E7C1B000E7D1B000E7E1B000E7F1B7D
:10412800800E801B7D51795D7E517A597F517B5974
:1041380080517C59D8B0A3EF20F0A5EF20F0A8EF6C
:1041480020F0D890A9EF20F0D880120009C0D9FF3C
:104158000AC0DAFF000EDFBC010E2C6E040E09182F
:10416800096E0A500A6E080E2618D8A4BEEF20F071
:10417800C0EF20F0D2EF20F0040132517F0B636EC4
:104188006350D8B4CAEF20F0CCEF20F0D0EF20F085
:10419800100E266ED2EF20F0040E266E2404D8A44A
:1041A800D8EF20F0DAEF20F021EF21F020EE02F036
:1041B8000950D9260A50DA22380EDE6E040EDD6E5A
:1041C8001BEC1FF0020E2518D8A4EDEF20F0EFEF3E
:1041D80020F0FDEF20F009C0D9FF0AC0DAFF040E75
:1041E800DF6E09C0D9FF0AC0DAFF000EDB8E2BEFA5
:1041F80021F02C50D8A403EF21F005EF21F013EFA4
:1042080021F009C0D9FF0AC0DAFF480EDF6E09C0E5
:10421800D9FF0AC0DAFF000EDB8E2BEF21F009C0B0
:10422800D9FF0AC0DAFF080EDF6E09C0D9FF0AC03D
:10423800DAFF000EDB8E2BEF21F004AE26EF21F023
:1042480028EF21F029EF21F0049E000E246E1200C1
:10425800000E0401386F000E396F84EF21F0128EC2
:104268002304D8A43AEF21F03CEF21F09EEF21F08F
:1042780038839EEF21F0128E9EEF21F0128E34BF0C
:1042880048EF21F04AEF21F05BEF21F034510F0B9A
:104298002B6E2B50020D0A0EF324D96E010EF4205A
:1042A800DA6EDECF2DF0DDCF2EF06AEF21F034513B
:1042B8000F0B2B6E2B50020D090EF324D96E000E36
:1042C800F420DA6EDECF2DF0DDCF2EF02DC0D9FF31
:1042D8002EC0DAFFDFAE73EF21F075EF21F09EEF0D
:1042E80021F02DC0D9FF2EC0DAFFDFA47EEF21F028
:1042F80080EF21F09EEF21F0010E386F9EEF21F044
:1043080030511F0B2B6E2C6A2C50000AD8B48FEF3B
:1043180021F09EEF21F02B50000AD8B433EF21F0A2
:10432800010AD8B43FEF21F0030AD8B442EF21F0D4
:104338009EEF21F012AEA3EF21F0A5EF21F0ACEF34
:1043480021F0380E0F6E040E106E1280020E136EDE
:104358001200040130511F0BE806D8B4B6EF21F063
:10436800B8EF21F0BAEF21F02DEF22F03039E83222
:10437800030BE806D8B4C3EF21F0C5EF21F0C7EF6F
:1043880021F02DEF22F03451D8B4CDEF21F0CFEF4A
:1043980021F00CEF22F03405D8B4D5EF21F0D7EF97
:1043A80021F00CEF22F02DEF22F0C10E0F6E010E5E
:1043B800106E000E146E080E136E1280128E2DEF02
:1043C80022F0C10E0F6E010E106E128E2DEF22F02C
:1043D80036C405F037C406F0C90E016E010E026E30
:1043E800000E076E000E086E048E2DEF22F0C90E27
:1043F8000F6E010E106E000E146E070E136EC10EB6
:10440800126E2DEF22F032C42EF1128E2DEF22F013
:1044180031512B6E2C6A2C50000AD8B416EF22F0BA
:104428002DEF22F02B50000AD8B4D9EF21F0010A61
:10443800D8B4E5EF21F0210AD8B4ECEF21F0010A55
:10444800D8B4FBEF21F0030AD8B407EF22F02DEF20
:1044580022F0120014C16AF015C16BF016C16CF09D
:1044680017C16DF060C06AF061C06BF062C06CF09B
:1044780063C06DF06AC064F06BC065F06CC066F034
:104488006DC067F0180E4FEF22F00001D890673327
:10449800663365336433E82E49EF22F06451686F60
:1044A800696B68516911D8A45CEF22F05EEF22F0C5
:1044B8007EEF22F0D8906A35646F6B35656F6C3586
:1044C800666F6D35676F6451651166116711D8A401
:1044D80070EF22F072EF22F078EF22F0000E616F99
:1044E800020E606FADEF22F0000E616F030E606F79
:1044F800ADEF22F068296911D8A485EF22F087EF83
:1045080022F0A9EF22F06AC064F06BC065F06CC0BD
:1045180066F06DC067F0090ED89064376537663766
:104528006737E82E90EF22F0645165116611671124
:10453800D8B4A1EF22F0A4EF22F0010EA5EF22F0EB
:10454800000E606F616BADEF22F0000E616F040E1C
:10455800606F12001D50D8A4B4EF22F0B6EF22F01D
:1045680025EF23F0010E1D6E1C50D8A4BEEF22F0DB
:10457800C0EF22F025EF23F0010E1C6E020E241866
:10458800D8A4C9EF22F0CBEF22F0E1EF22F020EE21
:1045980001F00950D9260A50DA22000EDF6E09C050
:1045A800D9FF0AC0DAFF480EDF6E09C0D9FF0AC07A
:1045B800DAFF000EDB8E25EF23F02404D8A4E7EF02
:1045C80022F0E9EF22F025EF23F0000E206E20EE16
:1045D80001F01750D9261850DA22080EDF6E20EEA7
:1045E80002F01750D9261850DA22300EDE6E040E6B
:1045F800DD6E17C0D9FF18C0DAFF040EDF6E17C0D2
:10460800D9FF18C0DAFF000EDB8E010E206E20EEF7
:1046180001F01550D9261650DA22080EDF6E20EE6A
:1046280002F01550D9261650DA22300EDE6E040E2E
:10463800DD6E15C0D9FF16C0DAFF800EDF6E25EFDC
:1046480023F01200128E6B0E2B6E0F0E2C6E000EC6
:104658002E6E000E2D6E000E306E020E2F6EA2EC26
:1046680018F0000E2B6E040E2C6E000E2E6E000E2F
:104678002D6E000E306E300E2F6EA2EC18F0608C8E
:10468800000E3F6EF20E3F24D96EDA6A000EDA226F
:10469800000EDF6EEF0E3F24D96EDA6A000EDA22C2
:1046A800000EDF6E3F2A020E3F645DEF23F05FEFDE
:1046B80023F046EF23F0D00E2B6E010E2C6E000E69
:1046C8002E6E000E2D6E000E306E020E2F6EA2ECB6
:1046D80018F0609C080E096E040E0A6E000E176E24
:1046E800040E186E17C015F018C016F032C42AF060
:1046F8002A50D8A482EF23F084EF23F088EF23F028
:10470800100E266E98EF23F0000E386E010E376EED
:104718002A0E396E000E3A6E000E3C6E010E3B6E8C
:1047280083EC27F0200E266E120060C067F061C08F
:1047380068F062C069F063C06AF000016407D8A03D
:104748006507642906E16529D8A4ADEF23F0AFEF2A
:1047580023F0BCEF23F0000E616F000E606F04EFD2
:1047680024F0674B682B694B6A2B6407D8A0650750
:1047780067C0D9FF68C0DAFFDF50D8B4C6EF23F0AE
:10478800C8EF23F0F3EF23F069C0F6FF6AC0F7FF24
:104798000800F5500009D8B4D4EF23F0D6EF23F081
:1047A800F3EF23F064516511D8B4DDEF23F0DFEFA8
:1047B80023F0F3EF23F067C0D9FF68C0DAFFDF50BA
:1047C800666F69C0F6FF6AC0F7FF0800F550661902
:1047D800D8B4F1EF23F0F3EF23F0B5EF23F067C07F
:1047E800D9FF68C0DAFFDF50666F69C0F6FF6AC09C
:1047F800F7FF0800F550665D606F616BD8A0610730
:104808001200000162516311D8B40DEF24F00FEFCC
:1048180024F018EF24F062516311D8A416EF24F0A5
:1048280018EF24F01DEF24F060518CEC2BF06AEFA8
:1048380024F020EE09F06251D9266351DA22DE50C5
:10484800DE10D8B42AEF24F02CEF24F047EF24F040
:1048580020EE09F06251D9266351DA2210EE03F0F6
:104868006251E1266351E222DE50E65CE650800A9E
:10487800686FDE50800A6859D8B045EF24F047EFDA
:1048880024F06AEF24F020EE03F06251D926635138
:10489800DA22DECF64F0DDCF65F062C0D9FF63C0F5
:1048A800DAFFDECF66F0DDCF67F064516625D96E9A
:1048B80065516721DA6E60C0DFFF20EE03F06251B8
:1048C800D9266351DA22DE2A000EDD221200000109
:1048D800F7A171EF24F073EF24F07DEF24F072C09C
:1048E80069F073C06AF070C06BF071C06CF024ECB2
:1048F8002AF0000175BF83EF24F085EF24F08BEFD9
:1049080024F074C079F075C07AF08FEF24F0000EAF
:104918007A6F000E796F000E786F000E776FA2EF36
:1049280024F0000E616F200E606F70C062F071C0DD
:1049380063F005EC24F00001774B782B7951775D13
:104948007851800A766F7A51800A7659D8A0AFEFED
:1049580024F0B1EF24F095EF24F0F7B1B6EF24F08E
:10496800B8EF24F0C2EF24F072C069F073C06AF0A7
:1049780070C06BF071C06CF024EC2AF072C060F06B
:1049880073C061F089EC29F0000179516025706FDE
:104998007A516121716F1200000E0001656F63BFCB
:1049A800DAEF24F0D8EF24F0E0EF24F0626D631F13
:1049B800D8B0632B010E656F61BFE7EF24F0E5EF18
:1049C80024F0EDEF24F0606D611FD8B0612B010E6B
:1049D800651B000E676F000E666F62516311D8B4D5
:1049E800F8EF24F0FAEF24F022EF25F0010E646FBF
:1049F80002EF25F0D89062376337642B63AF07EF77
:104A080025F009EF25F0FEEF24F0D89066376737D8
:104A18006251605D63516159D8A015EF25F017EF19
:104A280025F01CEF25F06251605F6351615B668180
:104A3800D89063336233642F09EF25F06551D8B4F9
:104A480028EF25F02AEF25F02EEF25F0666D671F79
:104A5800D8B0672B66C060F067C061F012002D0EF9
:104A68001F6E29C048F0FD0E4816D8A43EEF25F069
:104A780040EF25F082EF25F029C048F0D890483261
:104A88003F0E48164850040D000EF324176E040E0E
:104A9800F420186E17C015F018C016F0040E15187B
:104AA800156E1650166E17C0D9FF18C0DAFFDF3022
:104AB800E8320F0B0D0AD8A464EF25F066EF25F055
:104AC8007EEF25F0300E2B6E040E2C6E20EE02F0D9
:104AD8001750D9261850DA22DECF2DF0DDCF2EF070
:104AE800000E306E080E2F6EB2EC29F03BEC27F06A
:104AF8008EEF25F001EC28F08EEF25F02950FD0B04
:104B0800040AD8A48AEF25F08CEF25F08EEF25F063
:104B1800AAEC20F01200000E0001656F61BF99EF4A
:104B280025F097EF25F09FEF25F0606D611FD8B055
:104B3800612B010E656F63BFA6EF25F0A4EF25F08A
:104B4800AAEF25F0626D631FD8B0632B6251631121
:104B5800D8B4B1EF25F0B3EF25F0D7EF25F0010E6B
:104B6800646FBBEF25F0D89062376337642B63AF6F
:104B7800C0EF25F0C2EF25F0B7EF25F06251605D78
:104B880063516159D8A0CBEF25F0CDEF25F0D1EFD7
:104B980025F06251605F6351615BD8906333623383
:104BA800642FC2EF25F06551D8B4DDEF25F0DFEFB3
:104BB80025F0E3EF25F0606D611FD8B0612B60C070
:104BC80060F061C061F01200000E1B6E000E000163
:104BD800FA6F020E2418D8A4F4EF25F0F6EF25F0AA
:104BE80016EF26F020EE01F01550D9261650DA22DD
:104BF800080EDF6E20EE02F01550D9261650DA2284
:104C0800380EDE6E040EDD6E15C0D9FF16C0DAFF51
:104C1800480EDF6E15C0D9FF16C0DAFF000EDB8E16
:104C28003EEF26F013500401365D14503759D8B0C2
:104C380020EF26F022EF26F026EF26F036C413F0F8
:104C480037C414F01BEC1FF020EE02F00950D926EF
:104C58000A50DA22380EDE6E040EDD6E09C0D9FF66
:104C68000AC0DAFF480EDF6E09C0D9FF0AC0DAFFB2
:104C7800000EDB8E1200000E00016015686F000E3A
:104C88006115696F800E62156A6F7F0E63156B6F11
:104C9800685169116A116B11D8A455EF26F057EFC6
:104CA80026F05FEF26F0000E606F000E616F000EB9
:104CB800626F000E636F000E6415686F000E651555
:104CC800696F800E66156A6F7F0E67156B6F685186
:104CD80069116A116B11D8A474EF26F076EF26F0EB
:104CE8007EEF26F0000E646F000E656F000E666F93
:104CF800000E676F645160190FE1655161190CE18D
:104D08006651621909E167516319D8B48EEF26F02C
:104D180090EF26F093EF26F0D89094EF26F0D88005
:104D28001200306E000E316E040E326E2B502C6E57
:104D38002D6AD8902C362D3630502E6E2F6AD8908A
:104D48002E362F36D8902E362F362C502E262D5014
:104D58002F22D8902E362F36D8902E362F362E501A
:104D680031262F50322231C0D9FF32C0DAFFDF9E00
:104D78002B50D8A4C2EF26F0C4EF26F0D2EF26F0CD
:104D88003050020D0A0EF324D96E010EF420DA6EAB
:104D980031C0DEFF32C0DDFFDEEF26F03050020DFD
:104DA800090EF324D96E000EF420DA6E31C0DEFF4E
:104DB80032C0DDFF31C0D9FF32C0DAFFDF9C20EE00
:104DC80004F03150D9263250DA22DF8C120000016B
:104DD800616FC6BAF2EF26F0F4EF26F039EF27F04C
:104DE80000016151040D010EF326000EF422150E88
:104DF800F324F66E080EF420F76E0800F5CFC7FF0F
:104E08006151040D150EF324F66E080EF420F76EAA
:104E18000800F5CFC6FF000EC56E6151040D020EE5
:104E2800F326000EF422150EF324F66E080EF42075
:104E3800F76E0800F5CFC8FF6151040D030EF32685
:104E4800000EF422150EF324F66E080EF420F76E09
:104E58000800F5CF60F0604793506019FD0B6019AA
:104E6800936EC68A010E3AEF27F0000E1200000E6C
:104E7800256E000E1E6E000E1B6E000E0001FA6FEE
:104E8800000E206E000E246E09C0D9FF0AC0DAFF9A
:104E98007F0EDF16040E0918096E0A500A6E09C043
:104EA800D9FF0AC0DAFF7F0EDF16040E0918096E53
:104EB8000A500A6E15C0D9FF16C0DAFF7F0EDF163A
:104EC800000E126E000E146E000E136E000E046EAD
:104ED800000E066E000E056E8DEC1EF0000E386E8C
:104EE800030E376E000E396E000E3A6E000E3C6EE1
:104EF800000E3B6E83EC27F0ACEC1CF012008DEF3B
:104F080027F070EC28F0C6EF27F0ADEC21F0C6EFE3
:104F180027F037C03DF038C03EF03E50000AD8B404
:104F28009CEF27F07F0AD8B4BFEF27F0C6EF27F031
:104F38003D50010AD8B485EF27F0030AD8B4C6EF6C
:104F480027F0010AD8B489EF27F0060AD8B4C6EFCB
:104F580027F0770AD8B4C6EF27F0010AD8B4C6EF0D
:104F680027F0070AD8B4C6EF27F0010AD8B4C6EF6D
:104F780027F0C6EF27F03D50FF0AD8B4C6EF27F058
:104F8800C6EF27F01200A39401013051D8B4CFEF37
:104F980027F0D1EF27F0D4EF27F0A38400EF28F013
:104FA800000E0001646F60C062F061C063F0642BA2
:104FB8006429D8A4E2EF27F0E4EF27F0E6EF27F022
:104FC800F4EF27F062C0D9FF63C0DAFF624B632BAE
:104FD800DF50D8A4F2EF27F0F4EF27F0DBEF27F04B
:104FE80060C023F161C024F164C027F0010E010103
:104FF8002F6F010E306FA3841200020E2418D8A45C
:1050080008EF28F00AEF28F00EEF28F04DEC1DF01D
:105018003AEF28F0000E246E2050D8A416EF28F09E
:1050280018EF28F038EF28F020EE01F01550D926B7
:105038001650DA22080EDF6E20EE02F01550D9263F
:105048001650DA22300EDE6E040EDD6E15C0D9FF62
:1050580016C0DAFF0C0EDF6E15C0D9FF16C0DAFFD6
:10506800000EDB8E3AEF28F0000E206E1200DFC033
:10507800E3F0E0C0E4F0000E0101276F000E266F98
:105088005DEF28F0DDC0CBF0DEC0CCF0E30E000110
:10509800CD6F000ECE6FE1C0CFF0E2C0D0F076EC5D
:1050A80012F00001CB51010126270001CC5101016A
:1050B8002723E3C0F6FFE4C0F7FF0800F550000916
:1050C800D8A469EF28F06BEF28F046EF28F026C146
:1050D800DDF027C1DEF01200000E0101C96F4B0E92
:1050E800CA6F000ECB6F000ECC6F000ECD6F000E96
:1050F800CE6F080ECF6F000E286E1A0E336E010E9B
:10510800DAEC29F01E0E336E020EDAEC29F0000EEE
:105118002B6E400E2C6E050E2D6E400E2E6E020E5E
:10512800EEEC1DF02BC019F02CC01AF0000E010196
:105138002C6F000E2D6F000E306F12006AA0A7EFC3
:1051480028F0A9EF28F0D0EF28F017C0D9FF18C031
:10515800DAFF800EDE18D8A4B4EF28F0B6EF28F0F6
:10516800CFEF28F009C0D9FF0AC0DAFF840EDE1895
:10517800D8A4C1EF28F0C3EF28F0CFEF28F017C06C
:10518800D9FF18C0DAFF0C0EDF6E17C0D9FF18C0A0
:10519800DAFF000EDB8E6A90659A1200E80EF66E52
:1051A800560EF76E000EF86E01EED2F010EE12F009
:1051B8000900F5CFEEFFE550E150FAE102EE00F00C
:1051C800400EEE6AE806FDE101EE00F0D20EEE6A4E
:1051D800E806FDE100EEEFF00C0EEE6AE806FDE1F0
:1051E80000EE01F02A0EEE6AE806FDE154905492B2
:1051F800000EF86E00015DEF19F062C066F063C042
:1052080067F060C068F061C069F000016651646FC2
:105218006751656F664B672B64C0F6FF65C0F7FF83
:10522800F86A68C0D9FF69C0DAFF684B692B070EB6
:10523800F76403D00800F55005D0F6CFE1FFF7CFAB
:10524800E2FFE750DF6EDF50D8A42DEF29F02FEFF3
:1052580029F009EF29F01200E90E0101E46F000EB0
:10526800E56FE5C0E6F1E6C0E7F1000EEA6F000E73
:10527800E96F000EF06F000EEF6FE60E0001DD6FB4
:10528800010EDE6FE7C0DFF0E8C0E0F0E40EE16F8A
:10529800010EE26F3BEC28F00101E9510001E52520
:1052A800D96E0101EA510001E621DA6E000EDF6EC7
:1052B800120060C064F061C065F07AEF29F064C044
:1052C800D9FF65C0DAFFDF50C96E9EA66EEF29F0E0
:1052D80070EF29F069EF29F09E9664C0D9FF65C088
:1052E800DAFFC9CFDFFF0001644B652B00016207BD
:1052F800D8A06307622906E16329D8A486EF29F0BC
:1053080088EF29F063EF29F0120060C062F061C0F5
:1053180063F092EF29F00001604B612B60C0F6FF4B
:1053280061C0F7FFF86A070EF76403D00800F5506C
:1053380005D0F6CFE1FFF7CFE2FFE7500009D8A488
:10534800A8EF29F0AAEF29F08FEF29F000016251A8
:10535800605D606F63516159616F12002DC033F059
:105368002EC034F02BC031F02CC032F0CCEF29F035
:1053780033C0D9FF34C0DAFFDF50356E334A342AE0
:1053880031C0D9FF32C0DAFF35C0DFFF314A322AD7
:105398002F06D8A030062F2806E13028D8A4D7EF4A
:1053A80029F0D9EF29F0BCEF29F01200366E33A4AA
:1053B800E0EF29F0E2EF29F0E7EF29F0000E2B6E7D
:1053C800365095EC26F033A2ECEF29F0EEEF29F0F9
:1053D800F3EF29F0010E2B6E365095EC26F06A0E8D
:1053E8003624346E356A0F0E352234C0D9FF35C0E5
:1053F800DAFF33C0DFFF1200BF0E0001686FFF0E37
:10540800696F66C06AF067C06BF068516A276951B6
:105418006B236B5107E11A0E6A5DD8B016EF2AF0BC
:1054280018EF2AF01FEF2AF0200E6611666F6751F9
:10543800676F23EF2AF066C066F067C067F0120056
:10544800000E00016F6F000E6E6F37EF2AF06DC00F
:1054580060F0616B6BC062F06CC063F005EC24F027
:1054680000016E4B6F2B6E516925D96E6F516A2101
:10547800DA6EDF506D6F6D51D8A445EF2AF047EF13
:105488002AF02BEF2AF01200000E00017D1B000EFF
:105498007E1B000E7F1B800E801B79C060F07AC0D7
:1054A80061F07BC062F07CC063F07DC064F07EC0B8
:1054B80065F07FC066F080C067F087EC0AF060C0D6
:1054C80079F061C07AF062C07BF063C07CF01200B2
:1054D8002650D8A472EF2AF074EF2AF08CEF2AF045
:1054E800000E606E000E646E160E626E9F0E666E83
:1054F8007B0E646EA584A38483EF2AF0608660A681
:1055080088EF2AF08AEF2AF082EF2AF0010E266E41
:105518001200000E8D6E000E8C6E000E896E000E4D
:105528008A6E000E8B6E070E966E9268FD0E936E55
:10553800470E946E95680F015E69440E5D6F3C0ED0
:105548005C6F070E5F6F2F0E5B6F000E856EF18E1E
:105558001200000E226E000E386E740E376E000EAA
:10556800396E000E3A6E000E3C6E000E3B6E83ECF8
:1055780027F060926494C2EF2AF0659465B4C7EF8F
:105588002AF0C9EF2AF0C1EF2AF0000E0001F96FE6
:1055980012000001646FD8EF2AF086EC2BF0EAEFD6
:1055A8002AF0000EEAEF2AF000016451626F636B83
:1055B8006351000AD8B4E3EF2AF0D5EF2AF062511C
:1055C800000AD8B4D1EF2AF0D5EF2AF01200BF0EA6
:1055D8000001626FFF0E636F60C064F061C065F028
:1055E800625164276351652365510AE11A0E645DAF
:1055F800D8A001EF2BF004EF2BF0010E05EF2BF0F4
:10560800000E606F616B1200000160516111621140
:105618006311D8B412EF2BF014EF2BF01CEF2BF022
:10562800000E601B000E611B000E621B800E631BC8
:1056380060C060F061C061F062C062F063C063F096
:105648001200010E01011827000E19231A231B232B
:105658002250D8A432EF2BF034EF2BF03FEF2BF091
:105668000001F92BF951D8A43CEF2BF03EEF2BF0B9
:105678003FEF2BF0F9691200648465986082010E8F
:10568800226E000E0001F96F000E386E750E376E2F
:10569800000E396E000E3A6E000E3C6E000E3B6E28
:1056A80083EC27F01200700ED36E000ED26E800EBF
:1056B8009B6E000EB56ED2AE64EF2BF066EF2BF04A
:1056C8005FEF2BF012008AEC2BF07DEC2BF08DECC9
:1056D8002AF057EC2BF0BDEC1AF06CEC2AF0120013
:1056E8006461746100000000000000000000000018
:1056F8006461400EC76E020EC66E010EC86E9392AC
:10570800C69A1200000EEBEC26F01200D09E120092
:0257180012007D
:020000040020DA
:08000000FFFFFFFFFFFFFFFF00
:020000040030CA
:0E00000023285F3CFF9381FF0FC00FE00F40ED
:00000001FF
